S0140000747261636B6572736F6C61722E7372656303
S11300000C942A000C9434000C9434000C943400A6
S11300100C9434000C9434000C9434000C9434008C
S11300200C9434000C9434000C9434000C9434007C
S11300300C9434000C9434000C9434000C9434006C
S11300400C9434000C9434000C9434000C9434005C
S11300500C94340011241FBECFE5D8E0DEBFCDBF21
S11300600E9496000C94D7000C94000087E886B98F
S113007080E487B9089597B1987F8770892B87B9F1
S113008086B1806486B93699FECF84B195B108955E
S113009081B3806381BB82EA8FBD8AE18EBD8FE329
S11300A09CE997BD86BD08959BE0699FB00111242A
S11300B0685A7D4F813019F47BBD6ABD0895823042
S11300C011F479BD68BD0895EF92FF921F93CF9309
S11300D0DF937C0110E012C0C12FD0E0CC0FDD1FF4
S11300E0CE0DDF1D812F0E943B00998388838FE30F
S11300F09CE90197F1F700C000001F5F143060F322
S1130100DF91CF911F91FF90EF900895C9010A9656
S11301108417950738F0465F5F4F4217530720F066
S11301208AE508958DE2089587E80895CF93DF93D3
S1130130CDB7DEB728970FB6F894DEBF0FBECDBF9C
S11301400E9436000E944800CE0101960E9464007D
S1130150A981BA81EB81FC81CD018E0F9F1F4D8156
S11301605E812F813885BA01620F731F769567957A
S11301704A0F5B1F569547952E0F3F1F36952795BF
S1130180969587950E948600182F60E081E00E9472
S11301905400612F82E00E9454002FEF81EE94E01E
S11301A0215080409040E1F700C00000CDCFF8948A
S10501B0FFCF7B
S9030000FC
